{
  "contractName": "Certificate",
  "abi": [
    {
      "constant": true,
      "inputs": [
        {
          "name": "",
          "type": "uint256"
        }
      ],
      "name": "students",
      "outputs": [
        {
          "name": "id",
          "type": "uint256"
        },
        {
          "name": "commitee_name",
          "type": "string"
        },
        {
          "name": "certificate_of",
          "type": "string"
        },
        {
          "name": "first_name",
          "type": "string"
        },
        {
          "name": "rank",
          "type": "string"
        },
        {
          "name": "field",
          "type": "string"
        },
        {
          "name": "hod_verified",
          "type": "bool"
        },
        {
          "name": "principal_verified",
          "type": "bool"
        },
        {
          "name": "qr_code",
          "type": "string"
        }
      ],
      "payable": false,
      "stateMutability": "view",
      "type": "function"
    },
    {
      "constant": true,
      "inputs": [],
      "name": "studentsCount",
      "outputs": [
        {
          "name": "",
          "type": "uint256"
        }
      ],
      "payable": false,
      "stateMutability": "view",
      "type": "function"
    },
    {
      "inputs": [],
      "payable": false,
      "stateMutability": "nonpayable",
      "type": "constructor"
    },
    {
      "constant": false,
      "inputs": [
        {
          "name": "commitee_name",
          "type": "string"
        },
        {
          "name": "certificate_of",
          "type": "string"
        },
        {
          "name": "first_name",
          "type": "string"
        },
        {
          "name": "rank",
          "type": "string"
        },
        {
          "name": "field",
          "type": "string"
        },
        {
          "name": "hod_verified",
          "type": "bool"
        },
        {
          "name": "principal_verified",
          "type": "bool"
        },
        {
          "name": "qr_code",
          "type": "string"
        }
      ],
      "name": "addStudent",
      "outputs": [],
      "payable": false,
      "stateMutability": "nonpayable",
      "type": "function"
    },
    {
      "constant": false,
      "inputs": [
        {
          "name": "id",
          "type": "uint256"
        }
      ],
      "name": "updateStudent_hod",
      "outputs": [],
      "payable": false,
      "stateMutability": "nonpayable",
      "type": "function"
    },
    {
      "constant": false,
      "inputs": [
        {
          "name": "id",
          "type": "uint256"
        }
      ],
      "name": "updateStudent_pri",
      "outputs": [],
      "payable": false,
      "stateMutability": "nonpayable",
      "type": "function"
    }
  ],
  "bytecode": "0x60806040523480156200001157600080fd5b50620001726040805190810160405280600381526020017f63736900000000000000000000000000000000000000000000000000000000008152506040805190810160405280600c81526020017f417070726563696174696f6e00000000000000000000000000000000000000008152506040805190810160405280600781526020017f53616e6a617973000000000000000000000000000000000000000000000000008152506040805190810160405280600581526020017f46697273740000000000000000000000000000000000000000000000000000008152506040805190810160405280600981526020017f41636164656d69637300000000000000000000000000000000000000000000008152506000806040805190810160405280600781526020017f5152204841534800000000000000000000000000000000000000000000000000815250620002d8640100000000026401000000009004565b620002d26040805190810160405280600381526020017f63736900000000000000000000000000000000000000000000000000000000008152506040805190810160405280600c81526020017f417070726563696174696f6e00000000000000000000000000000000000000008152506040805190810160405280600281526020017f4a540000000000000000000000000000000000000000000000000000000000008152506040805190810160405280600581526020017f46697273740000000000000000000000000000000000000000000000000000008152506040805190810160405280600981526020017f41636164656d69637300000000000000000000000000000000000000000000008152506000806040805190810160405280600781526020017f5152204841534800000000000000000000000000000000000000000000000000815250620002d8640100000000026401000000009004565b62000506565b600160008154809291906001019190505550610120604051908101604052806001548152602001898152602001888152602001878152602001868152602001858152602001841515815260200183151581526020018281525060008060015481526020019081526020016000206000820151816000015560208201518160010190805190602001906200036d92919062000457565b5060408201518160020190805190602001906200038c92919062000457565b506060820151816003019080519060200190620003ab92919062000457565b506080820151816004019080519060200190620003ca92919062000457565b5060a0820151816005019080519060200190620003e992919062000457565b5060c08201518160060160006101000a81548160ff02191690831515021790555060e08201518160060160016101000a81548160ff0219169083151502179055506101008201518160070190805190602001906200044992919062000457565b509050505050505050505050565b828054600181600116156101000203166002900490600052602060002090601f016020900481019282601f106200049a57805160ff1916838001178555620004cb565b82800160010185558215620004cb579182015b82811115620004ca578251825591602001919060010190620004ad565b5b509050620004da9190620004de565b5090565b6200050391905b80821115620004ff576000816000905550600101620004e5565b5090565b90565b610c5980620005166000396000f30060806040526004361061006d576000357c0100000000000000000000000000000000000000000000000000000000900463ffffffff16806306ead22e14610072578063334267181461035157806368433a3a1461053057806387efa7af1461055b578063ad0041a914610588575b600080fd5b34801561007e57600080fd5b5061009d600480360381019080803590602001909291905050506105b5565b604051808a8152602001806020018060200180602001806020018060200189151515158152602001881515151581526020018060200187810387528f818151815260200191508051906020019080838360005b8381101561010b5780820151818401526020810190506100f0565b50505050905090810190601f1680156101385780820380516001836020036101000a031916815260200191505b5087810386528e818151815260200191508051906020019080838360005b83811015610171578082015181840152602081019050610156565b50505050905090810190601f16801561019e5780820380516001836020036101000a031916815260200191505b5087810385528d818151815260200191508051906020019080838360005b838110156101d75780820151818401526020810190506101bc565b50505050905090810190601f1680156102045780820380516001836020036101000a031916815260200191505b5087810384528c818151815260200191508051906020019080838360005b8381101561023d578082015181840152602081019050610222565b50505050905090810190601f16801561026a5780820380516001836020036101000a031916815260200191505b5087810383528b818151815260200191508051906020019080838360005b838110156102a3578082015181840152602081019050610288565b50505050905090810190601f1680156102d05780820380516001836020036101000a031916815260200191505b50878103825288818151815260200191508051906020019080838360005b838110156103095780820151818401526020810190506102ee565b50505050905090810190601f1680156103365780820380516001836020036101000a031916815260200191505b509f5050505050505050505050505050505060405180910390f35b34801561035d57600080fd5b5061052e600480360381019080803590602001908201803590602001908080601f0160208091040260200160405190810160405280939291908181526020018383808284378201915050505050509192919290803590602001908201803590602001908080601f0160208091040260200160405190810160405280939291908181526020018383808284378201915050505050509192919290803590602001908201803590602001908080601f0160208091040260200160405190810160405280939291908181526020018383808284378201915050505050509192919290803590602001908201803590602001908080601f0160208091040260200160405190810160405280939291908181526020018383808284378201915050505050509192919290803590602001908201803590602001908080601f0160208091040260200160405190810160405280939291908181526020018383808284378201915050505050509192919290803515159060200190929190803515159060200190929190803590602001908201803590602001908080601f01602080910402602001604051908101604052809392919081815260200183838082843782019150505050505091929192905050506109ad565b005b34801561053c57600080fd5b50610545610b20565b6040518082815260200191505060405180910390f35b34801561056757600080fd5b5061058660048036038101908080359060200190929190505050610b26565b005b34801561059457600080fd5b506105b360048036038101908080359060200190929190505050610b57565b005b6000602052806000526040600020600091509050806000015490806001018054600181600116156101000203166002900480601f0160208091040260200160405190810160405280929190818152602001828054600181600116156101000203166002900480156106675780601f1061063c57610100808354040283529160200191610667565b820191906000526020600020905b81548152906001019060200180831161064a57829003601f168201915b505050505090806002018054600181600116156101000203166002900480601f0160208091040260200160405190810160405280929190818152602001828054600181600116156101000203166002900480156107055780601f106106da57610100808354040283529160200191610705565b820191906000526020600020905b8154815290600101906020018083116106e857829003601f168201915b505050505090806003018054600181600116156101000203166002900480601f0160208091040260200160405190810160405280929190818152602001828054600181600116156101000203166002900480156107a35780601f10610778576101008083540402835291602001916107a3565b820191906000526020600020905b81548152906001019060200180831161078657829003601f168201915b505050505090806004018054600181600116156101000203166002900480601f0160208091040260200160405190810160405280929190818152602001828054600181600116156101000203166002900480156108415780601f1061081657610100808354040283529160200191610841565b820191906000526020600020905b81548152906001019060200180831161082457829003601f168201915b505050505090806005018054600181600116156101000203166002900480601f0160208091040260200160405190810160405280929190818152602001828054600181600116156101000203166002900480156108df5780601f106108b4576101008083540402835291602001916108df565b820191906000526020600020905b8154815290600101906020018083116108c257829003601f168201915b5050505050908060060160009054906101000a900460ff16908060060160019054906101000a900460ff1690806007018054600181600116156101000203166002900480601f0160208091040260200160405190810160405280929190818152602001828054600181600116156101000203166002900480156109a35780601f10610978576101008083540402835291602001916109a3565b820191906000526020600020905b81548152906001019060200180831161098657829003601f168201915b5050505050905089565b60016000815480929190600101919050555061012060405190810160405280600154815260200189815260200188815260200187815260200186815260200185815260200184151581526020018315158152602001828152506000806001548152602001908152602001600020600082015181600001556020820151816001019080519060200190610a40929190610b88565b506040820151816002019080519060200190610a5d929190610b88565b506060820151816003019080519060200190610a7a929190610b88565b506080820151816004019080519060200190610a97929190610b88565b5060a0820151816005019080519060200190610ab4929190610b88565b5060c08201518160060160006101000a81548160ff02191690831515021790555060e08201518160060160016101000a81548160ff021916908315150217905550610100820151816007019080519060200190610b12929190610b88565b509050505050505050505050565b60015481565b600160008083815260200190815260200160002060060160006101000a81548160ff02191690831515021790555050565b600160008083815260200190815260200160002060060160016101000a81548160ff02191690831515021790555050565b828054600181600116156101000203166002900490600052602060002090601f016020900481019282601f10610bc957805160ff1916838001178555610bf7565b82800160010185558215610bf7579182015b82811115610bf6578251825591602001919060010190610bdb565b5b509050610c049190610c08565b5090565b610c2a91905b80821115610c26576000816000905550600101610c0e565b5090565b905600a165627a7a72305820a8eb3b4bb200578d7a238d38f893417528c33a1a1606d3946d6fb2f1096aba170029",
  "source": "pragma solidity 0.4.25;\r\n\r\ncontract Certificate{\r\n\t\r\n\tstruct Student{\r\n\r\n\t\tuint id;\r\n\t\tstring commitee_name;\r\n\t\tstring certificate_of;\r\n\t\t//string issued_by;\r\n\t\tstring first_name;\r\n\t\t//string last_name;\r\n\t\tstring rank;\r\n\t\tstring field;\r\n\r\n\r\n\t\t//string hod_name;\r\n\t\t//string principal_name;\r\n\r\n\r\n\t\tbool hod_verified;\r\n\t\tbool principal_verified;\r\n\t\tstring qr_code;\r\n\t}\r\n\r\n\tmapping(uint => Student) public students;\r\n\tuint public studentsCount;\r\n\tconstructor () public {\r\n    addStudent(\"csi\",\"Appreciation\",\"Sanjays\",\"First\",\"Academics\",false,false,\"QR HASH\");\r\n    addStudent(\"csi\",\"Appreciation\",\"JT\",\"First\",\"Academics\",false,false,\"QR HASH\");\r\n   \r\n        \r\n   }\r\n\r\n\r\n\r\n    function addStudent (string commitee_name,string certificate_of,string first_name,string rank,string field,bool hod_verified,bool principal_verified,string qr_code) public {\r\n\r\n        studentsCount ++;\r\n        students[studentsCount] = Student(studentsCount,commitee_name,certificate_of,first_name,rank,field,hod_verified,principal_verified,qr_code);\r\n\r\n    }\r\n\r\n    function updateStudent_hod(uint id)\r\n    {\r\n     students[id].hod_verified=true;\r\n    }\r\n\r\n\r\n\r\n    function updateStudent_pri(uint id)\r\n    {\r\n     students[id].principal_verified=true;\r\n    }\t\r\n\r\n\r\n}",
  "sourcePath": "C:/xampp/htdocs/certificate/contracts/Certificate.sol",
  "compiler": {
    "name": "solc",
    "version": "0.4.25+commit.59dbf8f1.Emscripten.clang"
  },
  "schemaVersion": "3.0.16",
  "updatedAt": "2019-12-21T12:45:04.775Z",
  "devdoc": {
    "methods": {}
  },
  "userdoc": {
    "methods": {}
  }
}